{
    "abi": [
        {
            "anonymous": false,
            "inputs": [
                {
                    "indexed": false,
                    "internalType": "string",
                    "name": "title",
                    "type": "string"
                },
                {
                    "indexed": false,
                    "internalType": "string",
                    "name": "description",
                    "type": "string"
                }
            ],
            "name": "ProposalCreated",
            "type": "event"
        },
        {
            "anonymous": false,
            "inputs": [
                {
                    "indexed": false,
                    "internalType": "address",
                    "name": "voter",
                    "type": "address"
                },
                {
                    "indexed": false,
                    "internalType": "uint256",
                    "name": "proposalId",
                    "type": "uint256"
                },
                {
                    "indexed": false,
                    "internalType": "bool",
                    "name": "vote",
                    "type": "bool"
                }
            ],
            "name": "VoteCast",
            "type": "event"
        },
        {
            "inputs": [
                {
                    "internalType": "string",
                    "name": "_title",
                    "type": "string"
                },
                {
                    "internalType": "string",
                    "name": "_description",
                    "type": "string"
                }
            ],
            "name": "createProposal",
            "outputs": [],
            "stateMutability": "nonpayable",
            "type": "function"
        },
        {
            "inputs": [],
            "name": "getProposalsCount",
            "outputs": [
                {
                    "internalType": "uint256",
                    "name": "",
                    "type": "uint256"
                }
            ],
            "stateMutability": "view",
            "type": "function"
        },
        {
            "inputs": [
                {
                    "internalType": "address",
                    "name": "",
                    "type": "address"
                },
                {
                    "internalType": "uint256",
                    "name": "",
                    "type": "uint256"
                }
            ],
            "name": "hasVoted",
            "outputs": [
                {
                    "internalType": "bool",
                    "name": "",
                    "type": "bool"
                }
            ],
            "stateMutability": "view",
            "type": "function"
        },
        {
            "inputs": [
                {
                    "internalType": "uint256",
                    "name": "",
                    "type": "uint256"
                }
            ],
            "name": "proposals",
            "outputs": [
                {
                    "internalType": "string",
                    "name": "title",
                    "type": "string"
                },
                {
                    "internalType": "string",
                    "name": "description",
                    "type": "string"
                },
                {
                    "internalType": "uint256",
                    "name": "yesVotes",
                    "type": "uint256"
                },
                {
                    "internalType": "uint256",
                    "name": "noVotes",
                    "type": "uint256"
                }
            ],
            "stateMutability": "view",
            "type": "function"
        },
        {
            "inputs": [],
            "name": "readProposals",
            "outputs": [
                {
                    "components": [
                        {
                            "internalType": "string",
                            "name": "title",
                            "type": "string"
                        },
                        {
                            "internalType": "string",
                            "name": "description",
                            "type": "string"
                        },
                        {
                            "internalType": "uint256",
                            "name": "yesVotes",
                            "type": "uint256"
                        },
                        {
                            "internalType": "uint256",
                            "name": "noVotes",
                            "type": "uint256"
                        }
                    ],
                    "internalType": "struct ProposalVoter.Proposal[]",
                    "name": "",
                    "type": "tuple[]"
                }
            ],
            "stateMutability": "view",
            "type": "function"
        },
        {
            "inputs": [
                {
                    "internalType": "uint256",
                    "name": "_proposalId",
                    "type": "uint256"
                },
                {
                    "internalType": "bool",
                    "name": "_voteYes",
                    "type": "bool"
                }
            ],
            "name": "vote",
            "outputs": [],
            "stateMutability": "nonpayable",
            "type": "function"
        }
    ],
    "bytecode": {
        "object": "0x608060405234801561001057600080fd5b50610b09806100206000396000f3fe608060405234801561001057600080fd5b50600436106100625760003560e01c8063013cf08b14610067578063425458251461009357806365e481e2146100ce57806380934f33146100e357806398e527d3146100f8578063c9d27afe14610109575b600080fd5b61007a610075366004610678565b61011c565b60405161008a94939291906106d7565b60405180910390f35b6100be6100a1366004610710565b600060208181529281526040808220909352908152205460ff1681565b604051901515815260200161008a565b6100e16100dc3660046107eb565b61026c565b005b6100eb61033e565b60405161008a919061084f565b60015460405190815260200161008a565b6100e16101173660046108ea565b6104d5565b6001818154811061012c57600080fd5b906000526020600020906004020160009150905080600001805461014f9061091f565b80601f016020809104026020016040519081016040528092919081815260200182805461017b9061091f565b80156101c85780601f1061019d576101008083540402835291602001916101c8565b820191906000526020600020905b8154815290600101906020018083116101ab57829003601f168201915b5050505050908060010180546101dd9061091f565b80601f01602080910402602001604051908101604052809291908181526020018280546102099061091f565b80156102565780601f1061022b57610100808354040283529160200191610256565b820191906000526020600020905b81548152906001019060200180831161023957829003601f168201915b5050505050908060020154908060030154905084565b6040805160808101825283815260208101839052600091810182905260608101829052600180548082018255925280519091829160049091027fb10e2d527612073b26eecdfd717e6a320cf44b4afac2b0732d9fcbe2b7fa0cf6019081906102d490826109a8565b50602082015160018201906102e990826109a8565b50604082015181600201556060820151816003015550507f1a51752aa6f33b6ca737e2496a349f112944c0bb58bd54d60d6cf2b57c681b6c8383604051610331929190610a68565b60405180910390a1505050565b60606001805480602002602001604051908101604052809291908181526020016000905b828210156104cc57838290600052602060002090600402016040518060800160405290816000820180546103959061091f565b80601f01602080910402602001604051908101604052809291908181526020018280546103c19061091f565b801561040e5780601f106103e35761010080835404028352916020019161040e565b820191906000526020600020905b8154815290600101906020018083116103f157829003601f168201915b505050505081526020016001820180546104279061091f565b80601f01602080910402602001604051908101604052809291908181526020018280546104539061091f565b80156104a05780601f10610475576101008083540402835291602001916104a0565b820191906000526020600020905b81548152906001019060200180831161048357829003601f168201915b505050505081526020016002820154815260200160038201548152505081526020019060010190610362565b50505050905090565b60015482106105215760405162461bcd60e51b8152602060048201526013602482015272125b9d985b1a59081c1c9bdc1bdcd85b081251606a1b60448201526064015b60405180910390fd5b3360009081526020818152604080832085845290915290205460ff161561059a5760405162461bcd60e51b815260206004820152602760248201527f596f75206861766520616c726561647920766f746564206f6e207468697320706044820152661c9bdc1bdcd85b60ca1b6064820152608401610518565b80156105db57600182815481106105b3576105b3610a96565b6000918252602082206002600490920201018054916105d183610aac565b9190505550610612565b600182815481106105ee576105ee610a96565b60009182526020822060036004909202010180549161060c83610aac565b91905055505b33600081815260208181526040808320868452825291829020805460ff1916600117905581519283528201849052821515908201527fd356173ae8eeea8691aee4c1be712c314a975a3d43ebc48b08ca54d0dac912289060600160405180910390a15050565b60006020828403121561068a57600080fd5b5035919050565b6000815180845260005b818110156106b75760208185018101518683018201520161069b565b506000602082860101526020601f19601f83011685010191505092915050565b6080815260006106ea6080830187610691565b82810360208401526106fc8187610691565b604084019590955250506060015292915050565b6000806040838503121561072357600080fd5b82356001600160a01b038116811461073a57600080fd5b946020939093013593505050565b634e487b7160e01b600052604160045260246000fd5b600082601f83011261076f57600080fd5b813567ffffffffffffffff8082111561078a5761078a610748565b604051601f8301601f19908116603f011681019082821181831017156107b2576107b2610748565b816040528381528660208588010111156107cb57600080fd5b836020870160208301376000602085830101528094505050505092915050565b600080604083850312156107fe57600080fd5b823567ffffffffffffffff8082111561081657600080fd5b6108228683870161075e565b9350602085013591508082111561083857600080fd5b506108458582860161075e565b9150509250929050565b60006020808301818452808551808352604092508286019150828160051b87010184880160005b838110156108dc57603f1989840301855281516080815181865261089c82870182610691565b915050888201518582038a8701526108b48282610691565b838a0151878b0152606093840151939096019290925250509386019390860190600101610876565b509098975050505050505050565b600080604083850312156108fd57600080fd5b823591506020830135801515811461091457600080fd5b809150509250929050565b600181811c9082168061093357607f821691505b60208210810361095357634e487b7160e01b600052602260045260246000fd5b50919050565b601f8211156109a357600081815260208120601f850160051c810160208610156109805750805b601f850160051c820191505b8181101561099f5782815560010161098c565b5050505b505050565b815167ffffffffffffffff8111156109c2576109c2610748565b6109d6816109d0845461091f565b84610959565b602080601f831160018114610a0b57600084156109f35750858301515b600019600386901b1c1916600185901b17855561099f565b600085815260208120601f198616915b82811015610a3a57888601518255948401946001909101908401610a1b565b5085821015610a585787850151600019600388901b60f8161c191681555b5050505050600190811b01905550565b604081526000610a7b6040830185610691565b8281036020840152610a8d8185610691565b95945050505050565b634e487b7160e01b600052603260045260246000fd5b600060018201610acc57634e487b7160e01b600052601160045260246000fd5b506001019056fea2646970667358221220296bd2a18d1779754d05d82a5347f4214e1116fae1f30a7b9d8017fcc72b8c3564736f6c63430008130033",
        "linkReferences": {}
    },
    "methodIdentifiers": {
        "createProposal(string,string)": "65e481e2",
        "getProposalsCount()": "98e527d3",
        "hasVoted(address,uint256)": "42545825",
        "proposals(uint256)": "013cf08b",
        "readProposals()": "80934f33",
        "vote(uint256,bool)": "c9d27afe"
    },
    "id": 18
}